:100000000C94B5000C94D4000C94D4000C94D4003F
:100010000C94D4000C94D4000C94D4000C94D40010
:100020000C94D4000C94D4000C94D4000C94D40000
:100030000C9470050C94D4000C94D4000C94D4004F
:100040000C94D4000C94D4000C94D4000C94D400E0
:100050000C94D4000C94D4000C94D4000C94D400D0
:100060000C94D4000C94D4000C94D4000C94D400C0
:100070000C94D4000C94D4000C94D4000C94D400B0
:100080000C94D4000C94D4000C94D4000C94D400A0
:100090000C94D4000C94D4000C94D4000C94D40090
:1000A0000C94D4000C94D4000C94D4000C94D40080
:1000B0000C94D4000C94D4000C94D4000C94D40070
:1000C0000C94D4000C94D4000C94D4000C94D40060
:1000D0000C94D4000C94D4000C94D4000C94D40050
:1000E0000C94D4000C94D40007634236B79BD8A775
:1000F0001A39685618AEBAAB558C1D3CB7CC57634D
:10010000BD6DEDFD753EF6177231BF000000803FFA
:1001100008000000BE922449123EABAAAA2ABECD16
:10012000CCCC4C3E00000080BEABAAAAAA3E000088
:100130000000BF000000803F000000000008417880
:10014000D3BB4387D1133D190E3CC3BD4282AD2BB7
:100150003E68EC8276BED98FE1A93E4C80EFFFBEAF
:1001600001C4FF7F3F000000000011241FBECFEF3D
:10017000CDBFDFE7DEBF10E4A0E0B0E4E6EAF3E1E4
:1001800000E00BBF02C007900D92AE39B107D9F75E
:1001900021E4AEE9B0E401C01D92AA31B207E1F753
:1001A0000E9444050C94D1090C940000615071091F
:1001B00020E030E00EC0DC01A20FB31F4C91FC0127
:1001C000E60FF71F50815C9340832F5F3F4F6150D4
:1001D0007109261737077CF30895CF92DF92EF92CB
:1001E000FF920F931F93CF93DF938A016901C0E0C1
:1001F000D0E011C07801EC0EFD1E2AE030E040E0B6
:1002000050E00E947609605DF7016083622F732FD2
:10021000842F952F2196611571058105910551F760
:1002200006C0F801EC0FFD1F80E380832196CC15FA
:10023000DD05BCF3BE01C8010E94D600F801EC0F39
:10024000FD1F1082CE01DF91CF911F910F91FF9082
:10025000EF90DF90CF9008958F929F92AF92BF92D0
:10026000CF92DF92EF92FF920F931F93CF93DF9382
:100270004B015C018A01E9010E9497066B01770F2F
:10028000EE08FF08C701B6010E94CF069B01AC0132
:10029000C501B4010E94B3054B015C0120E030E0D0
:1002A000A801C701B6010E94ED007C01209749F129
:1002B000F801E80FF91F8EE28083BE010D2E000CBD
:1002C000880B990B0E94CF069B01AC0160E070E0A7
:1002D00080E291E40E94F1079B01AC01C501B401E9
:1002E0000E9484072FEFE21AF20A0E949706A801E3
:1002F0004E0D5F1D072E000C880B990B9E010E946E
:10030000ED00DF91CF911F910F91FF90EF90DF9063
:10031000CF90BF90AF909F908F900895E0E4F4E06D
:1003200020812D7F2083208121602083BC0180E0FB
:1003300090E00E94CD0620E030E040E851E40E94C9
:1003400084079B01AC0160E074E284E79DE40E94B5
:10035000250620E030E040E05FE30E94B4050E9403
:100360009E06E0E2F8E0608771878681806C868374
:1003700008959091240895FFFCCF8093220808955A
:100380000F931F93CF93DF938C01C0E0D0E007C0A1
:10039000F801EC0FFD1F80810E94B9012196F80140
:1003A00001900020E9F73197E01BF10BCE17DF0732
:1003B00078F38AE00E94B901DF91CF911F910F91EC
:1003C000089520E030E043EC50E40E94ED0083EC1F
:1003D00090E40E94C00108959A0143EC50E40E9409
:1003E0002C0183EC90E40E94C0010895E0E0F9E064
:1003F00081E0858383E084830895E0E0F9E08DE087
:10040000868381E0858383818A60838383818160A1
:1004100083830895CF93DF93C82FD62F809105094A
:100420008370833089F480E490E40E94C00120E668
:100430003AEE01C09C01809105098370833021F45C
:10044000C9010197232BB1F785E080930509DD23CE
:1004500041F08C2F90E0880F991F816080930709ED
:1004600004C08C2F880F8093070980E69AEE2091B4
:10047000050924FF06C02091050926FD02C0019749
:10048000B1F7892B21F48AE490E40E94C0018091A5
:10049000050982FF04C082E590E40E94C001DF915B
:1004A000CF910895E7EEF3E03197F1F700C0000037
:1004B0008093080980E69AEE2091050924FF02C086
:1004C0000197D1F7892B21F48AE490E40E94C001BE
:1004D0008091050983FD04C08091050982FF06C053
:1004E00081E790E40E94C0010E94F6010895CF9335
:1004F000DF93C0E6DAEE80910509882314F0219796
:10050000D1F78091050983FD04C08091050982FF20
:1005100006C085E890E40E94C0010E94F601CD2B40
:1005200021F48AE490E40E94C00180910809DF91DF
:10053000CF910895E0E0F4E082898860828B83891E
:100540008860838B83E393E3A3E3B0E08093164159
:1005500090931741A0931841B09319418CEC9CECF7
:10056000ACECB0E08093BF409093C040A093C140FA
:10057000B093C24080E895E20E948E010E94FD0186
:1005800008958F929F92AF92BF92CF92DF92EF9297
:10059000FF92CF93DF9360E088E10E940A028AEA2B
:1005A0000E94520280E00E94520280E00E945202A9
:1005B0000E94F6018FE097E20197F1F700C000007A
:1005C00061E088E10E940A020E9477028093B640AF
:1005D0000E94770290E0A0E0B0E0BA2FA92F982FF8
:1005E00088278093B7409093B840A093B940B093C8
:1005F000BA400E9477024091B7405091B840609154
:10060000B9407091BA40482B762F652F542F44275C
:100610004093B7405093B8406093B9407093BA404C
:100620000E9477024091B7405091B8406091B94024
:100630007091BA40482B4093B7405093B8406093B4
:10064000B9407093BA40E0E0F9E08481846084832B
:100650008FE097E20197F1F700C00000809016410B
:1006600090901741A0901841B09019418091B740E7
:100670009091B840A091B940B091BA409C01AD01B1
:10068000281939094A095B09C091B440D091B54095
:10069000A0910940B0910A40AC1BBD0B0E94950986
:1006A0000E94CD066B017C018091BF409091C040BB
:1006B000A091C140B091C240BC01CD016819790937
:1006C0008A099B090E94CD069B01AC01C701B601B6
:1006D0000E9425066B017C01BE0180E090E00E9433
:1006E000CD06A70196010E94B4056093B0407093B7
:1006F000B1408093B2409093B3402FE23DE94CE883
:1007000052E40E9484076093AC407093AD408093A4
:10071000AE409093AF4020E030E04AE754E40E94BE
:100720007F07181644F41092AC401092AD4010921E
:10073000AE401092AF406091AC407091AD4080915E
:10074000AE409091AF4041E050E00E94EC016091DA
:10075000AC407091AD408091AE409091AF40DF9140
:10076000CF91FF90EF90DF90CF90BF90AF909F9090
:100770008F9008957894E0E0F4E080818160808338
:1007800080898860808BE0E0FAE08FE99FE086A3B3
:1007900097A310A211A280818083818180618183CF
:1007A00081818360818380818160808308958091CD
:1007B000A0409091A140A091A240B091A340803A66
:1007C0009F40A105B10560F08FE99FE0A0E0B0E097
:1007D0008093A0409093A140A093A240B093A340E7
:1007E0000895CF92DF92EF92FF9220E030E040E850
:1007F0005FE36091014070910240809103409091CD
:1008000004400E94B4052091A8403091A940409135
:10081000AA405091AB400E94B3056093A4407093EE
:10082000A5408093A6409093A74020910540309129
:10083000064040910740509108400E9484076B0198
:100840007C016091A0407091A1408091A240909164
:10085000A3400E94CD06A70196010E94B4050E9404
:100860009E066093A0407093A1408093A240909315
:10087000A3400E94D703FF90EF90DF90CF900895A0
:100880008F929F92AF92BF92CF92DF92EF92FF92A0
:100890000E94C1026093A8407093A9408093AA402F
:1008A0009093AB4041E050E00E94EC010E94F103C4
:1008B00020E030E040E050E460910140709102405F
:1008C00080910340909104400E94B3052091A8407C
:1008D0003091A9404091AA405091AB400E947F07BF
:1008E00088231CF081E080930040809100408823A1
:1008F00009F454C08FEC97E0A0E0B0E08093A040F2
:100900009093A140A093A240B093A34017C00E942F
:10091000C1026093A8407093A9408093AA4090932D
:10092000AB400E94F103E0E0FAE0808181608083C7
:100930008091A0409091A14080A791A720E030E055
:1009400040E85FE360910140709102408091034074
:10095000909104400E94B4052091A8403091A94094
:100960004091AA405091AB400E947F0788237CF6BB
:100970001092004013C00E94C1026093A84070937F
:10098000A9408093AA409093AB400E94F103E0E01D
:10099000FAE080818160808310A611A620E030E01B
:1009A00040E050E46091014070910240809103402A
:1009B000909104400E94B4052091A8403091A94034
:1009C0004091AA405091AB400E94200688239CF29F
:1009D00016C00E94C1026093A8407093A940809302
:1009E000AA409093AB401092A0401092A140109268
:1009F000A2401092A3401092280A1092290A8090D7
:100A0000014090900240A0900340B090044020E04C
:100A100030E040E050E4C501B4010E94B405C0904C
:100A2000A840D090A940E090AA40F090AB40A70128
:100A300096010E947F0788238CF020E030E040E0A0
:100A400050E4C501B4010E94B3059B01AC01C7018C
:100A5000B6010E947F0788230CF0BBCFFF90EF9078
:100A6000DF90CF90BF90AF909F908F900895E0E07F
:100A7000FBE082E49FE084879587808185608083A6
:100A8000858181608583089580E895E20E948E01CA
:100A90000E949A020E94BA030E943705E0E8F4E03F
:100AA0008081816080838081826080838581816094
:100AB000858385818260858380918404811103C050
:100AC0000E94400404C01092280A1092290A6091E2
:100AD0009E4070919F4080E090E00E94E101ECCF49
:100AE0001F920F920FB60F9211240BB60F922F93F5
:100AF0008F939F93EF93FF9380919E4090919F409F
:100B0000019680939E4090939F4081302DE79207FD
:100B100078F481389E4330F4E0E8F4E08481816029
:100B2000848310C0E0E8F4E084818E7F84830AC06F
:100B300010929E4010929F40E4E8F4E0908182E0A1
:100B400089278083E0E0FBE0868181608683FF91D6
:100B5000EF919F918F912F910F900BBE0F900FBE31
:100B60000F901F9018955058BB27AA270E94CB05BD
:100B70000C9445070E94370738F00E943E0720F08A
:100B800039F49F3F19F426F40C9434070EF4E095E1
:100B9000E7FB0C942E07E92F0E94560758F3BA176B
:100BA000620773078407950720F079F4A6F50C9483
:100BB00078070EF4E0950B2EBA2FA02D0B01B9018A
:100BC00090010C01CA01A0011124FF27591B99F0C3
:100BD000593F50F4503E68F11A16F040A22F232FCF
:100BE000342F4427585FF3CF469537952795A7951F
:100BF000F0405395C9F77EF41F16BA0B620B730BC6
:100C0000840BBAF09150A1F0FF0FBB1F661F771F36
:100C1000881FC2F70EC0BA0F621F731F841F48F4EB
:100C2000879577956795B795F7959E3F08F0B0CF74
:100C30009395880F08F09927EE0F9795879508955B
:100C40000E940A0708F481E008950E9439060C9476
:100C500045070E943E0758F00E94370740F029F4EC
:100C60005F3F29F00C942E0751110C9479070C94D6
:100C700034070E94560768F39923B1F3552391F383
:100C8000951B550BBB27AA2762177307840738F0FB
:100C90009F5F5F4F220F331F441FAA1FA9F335D058
:100CA0000E2E3AF0E0E832D091505040E695001C0C
:100CB000CAF72BD0FE2F29D0660F771F881FBB1FC6
:100CC000261737074807AB07B0E809F0BB0B802DA4
:100CD000BF01FF2793585F4F3AF09E3F510578F0D0
:100CE0000C942E070C9479075F3FE4F3983ED4F3FD
:100CF000869577956795B795F7959F5FC9F7880FA4
:100D0000911D9695879597F90895E1E0660F771FF5
:100D1000881FBB1F621773078407BA0720F0621B86
:100D2000730B840BBA0BEE1F88F7E09508950E94B1
:100D30009E066894B1110C94790708950E945E078D
:100D400088F09F5798F0B92F9927B751B0F0E1F08C
:100D5000660F771F881F991F1AF0BA95C9F714C03C
:100D6000B13091F00E947807B1E008950C947807B3
:100D7000672F782F8827B85F39F0B93FCCF3869575
:100D800077956795B395D9F73EF4909580957095D2
:100D900061957F4F8F4F9F4F0895E89409C097FB4F
:100DA0003EF490958095709561957F4F8F4F9F4F42
:100DB0009923A9F0F92F96E9BB279395F695879586
:100DC00077956795B795F111F8CFFAF4BB0F11F449
:100DD00060FF1BC06F5F7F4F8F4F9F4F16C08823F0
:100DE00011F096E911C0772321F09EE8872F762F26
:100DF00005C0662371F096E8862F70E060E02AF067
:100E00009A95660F771F881FDAF7880F9695879552
:100E100097F90895990F0008550FAA0BE0E8FEEF27
:100E200016161706E807F907C0F012161306E407AE
:100E3000F50798F0621B730B840B950B39F40A26A7
:100E400061F0232B242B252B21F408950A2609F485
:100E5000A140A6958FEF811D811D089597F99F6789
:100E600080E870E060E008959FEF80EC0895002432
:100E70000A941616170618060906089500240A94FF
:100E800012161306140605060895092E0394000C85
:100E900011F4882352F0BB0F40F4BF2B11F460FF14
:100EA00004C06F5F7F4F8F4F9F4F089557FD90583D
:100EB000440F551F59F05F3F71F04795880F97FB1E
:100EC000991F61F09F3F79F08795089512161306D8
:100ED0001406551FF2CF4695F1DF08C01616170607
:100EE0001806991FF1CF869571056105089408953C
:100EF000E894BB2766277727CB0197F908950E94CE
:100F00000A0708F48FEF08950E9497070C9445078D
:100F10000E94370738F00E943E0720F0952311F019
:100F20000C942E070C94340711240C9479070E941A
:100F3000560770F3959FC1F3950F50E0551F629FC0
:100F4000F001729FBB27F00DB11D639FAA27F00D22
:100F5000B11DAA1F649F6627B00DA11D661F829F49
:100F60002227B00DA11D621F739FB00DA11D621F2E
:100F7000839FA00D611D221F749F3327A00D611D4B
:100F8000231F849F600D211D822F762F6A2F11242D
:100F90009F5750409AF0F1F088234AF0EE0FFF1F60
:100FA000BB1F661F771F881F91505040A9F79E3FB7
:100FB000510580F00C942E070C9479075F3FE4F301
:100FC000983ED4F3869577956795B795F795E7950D
:100FD0009F5FC1F7FE2B880F911D9695879597F916
:100FE0000895FA01EE0FFF1F309621053105A1F19A
:100FF0006115710561F48038BFE39B0749F168947E
:101000009038810561F08038BFEF9B0741F099234C
:101010004AF5FF3FE1053105210519F1E8940894EF
:10102000E795D901AA2329F4AB2FBE2FF85FD0F39F
:1010300010C0FF5F70F4A695E0F7F73950F019F093
:10104000FF3A38F49F779F930DD00F9007FC90588C
:10105000089546F00C94340760E070E080E89FE368
:1010600008954FE79F775F934F933F932F930E948D
:10107000EC082F913F914F915F910E9484070C944F
:10108000490829F416F00C942E070C9478070C9458
:1010900034070E945E07A8F39638A0F707F80F926E
:1010A000E8942BE33AEA48EB5FE70E949A070F9235
:1010B0000F920F924DB75EB70F920E943409E8EE7F
:1010C000F0E00E947B084F915F91EF91FF91E595D1
:1010D000EE1FFF1F49F0FE57E0684427EE0F441F44
:1010E000FA95E1F74195550B0E94AE080F9007FE67
:1010F0000C94A2080895DF93CF931F930F93FF9250
:10110000EF92DF927B018C01689406C0DA2EEF012A
:101110000E949707FE01E894A5912591359145918C
:101120005591A6F3EF010E94CB05FE019701A8019E
:10113000DA9469F7DF90EF90FF900F911F91CF91B4
:10114000DF9108959B01AC0160E070E080E89FE3CF
:101150000C9425060C942E070C9468090E945E07D7
:10116000D8F39923C9F3940F511DA3F39150504024
:1011700094F059F0882332F0660F771F881F915042
:101180005040C1F79E3F51052CF7880F911D969551
:10119000879597F908955F3FACF0983E9CF0BB2788
:1011A000869577956795B79508F4B1609395C1F7E3
:1011B000BB0F58F711F460FFE8CF6F5F7F4F8F4F81
:1011C0009F4FE3CF0C94790716F00C9468090C94A8
:1011D000340768940C942E070E945E07A8F39923A5
:1011E000C1F3AEF3DF93CF931F930F93FF92C92FF9
:1011F000DD2788232AF02197660F771F881FDAF7EB
:1012000020E030E040E85FEB9FE3883920F0803E4B
:1012100038F021968F770E94B405E0E1F1E004C038
:101220000E94B405EDE3F1E00E947B088B01BE0152
:10123000EC01FB2E6F5771097595771F880B990B81
:101240000E94CF0628E132E741E35FE30E9497075F
:10125000AF2D9801AE01FF900F911F91CF91DF91BB
:101260000E94CB050C944507FA01DC01AA0FBB1FB5
:101270009B01AC01BF5728F422273327442750781D
:1012800020C0B75190F4AB2F002446953795279591
:10129000011CA395D2F3002071F0220F331F441FCD
:1012A000B395DAF30ED00C94B30561307105A0E864
:1012B0008A07B94630F49B01AC0166277727882757
:1012C0009078309621F020833183428353830895B0
:1012D0009F3F31F0915020F4879577956795B795AA
:1012E000880F911D9695879597F90895052E97FB80
:1012F0001EF400940E948D0957FD07D00E94A0099A
:1013000007FC03D04EF40C948D0950954095309510
:1013100021953F4F4F4F5F4F089590958095709561
:1013200061957F4F8F4F9F4F08950E94C209A59FDF
:10133000900DB49F900DA49F800D911D11240895D0
:10134000A1E21A2EAA1BBB1BFD010DC0AA1FBB1FC9
:10135000EE1FFF1FA217B307E407F50720F0A21B3B
:10136000B30BE40BF50B661F771F881F991F1A94A8
:1013700069F760957095809590959B01AC01BD01D2
:10138000CF010895A29FB001B39FC001A39F700D2C
:10139000811D1124911DB29F700D811D1124911D7D
:0613A0000895F894FFCF50
:1013A60001000074420000C03F0100524946005748
:1013B600494600434C4B484F4C4400525841434B1E
:1013C600004152424C4F535400425553455252002D
:1013D60049444C45004F574E45520042555359001B
:1013E60049324320627573792E0074696D656F7595
:1013F60074000A2D2D2D2D3E204572726F722069C4
:101406006E2073656E64696E6720616464722E0A6D
:10141600004572726F7220696E2064617461207378
:10142600656E742E004572726F7220696E2064615B
:0E14360074612072656369657665642E00003E
:00000001FF
