S013000045545F50636F6E74726F6C2E73726563C8
S11300000C94B5000C94D4000C94D4000C94D4003B
S11300100C94D4000C94D4000C94D4000C94D4000C
S11300200C94D4000C94D4000C94D4000C94D400FC
S11300300C94D4000C94D4000C94D4000C94D400EC
S11300400C94D4000C94D4000C94D4000C94D400DC
S11300500C94D4000C94D4000C94D4000C94D400CC
S11300600C94D4000C94D4000C94D4000C94D400BC
S11300700C94D4000C94D4000C94D4000C94D400AC
S11300800C94D4000C94D4000C94D4000C94D4009C
S11300900C94D4000C94D4000C94D4000C94D4008C
S11300A00C94D4000C94D4000C94D4000C94D4007C
S11300B00C94D4000C94D4000C94D4000C94D4006C
S11300C00C94D4000C94D4000C94D4000C94D4005C
S11300D00C94D4000C94D4000C94D4000C94D4004C
S11300E00C94D4000C94D40007634236B79BD8A771
S11300F01A39685618AEBAAB558C1D3CB7CC576349
S1130100BD6DEDFD753EF6177231BF000000803FF6
S113011008000000BE922449123EABAAAA2ABECD12
S1130120CCCC4C3E00000080BEABAAAAAA3E000084
S11301300000BF000000803F00000000000841787C
S1130140D3BB4387D1133D190E3CC3BD4282AD2BB3
S11301503E68EC8276BED98FE1A93E4C80EFFFBEAB
S113016001C4FF7F3F000000000011241FBECFEF39
S1130170CDBFDFE7DEBF10E4A0E0B0E4EEEEF2E1D5
S113018000E00BBF02C007900D92AE39B107D9F75A
S113019021E4AEE9B0E401C01D92A831B207E1F751
S11301A00E9440050C9475090C940000615071097B
S11301B020E030E00EC0DC01A20FB31F4C91FC0123
S11301C0E60FF71F50815C9340832F5F3F4F6150D0
S11301D07109261737077CF30895CF92DF92EF92C7
S11301E0FF920F931F93CF93DF938A016901C0E0BD
S11301F0D0E011C07801EC0EFD1E2AE030E040E0B2
S113020050E00E941A09605DF7016083622F732F2A
S1130210842F952F2196611571058105910551F75C
S113022006C0F801EC0FFD1F80E380832196CC15F6
S1130230DD05BCF3BE01C8010E94D600F801EC0F35
S1130240FD1F1082CE01DF91CF911F910F91FF907E
S1130250EF90DF90CF9008958F929F92AF92BF92CC
S1130260CF92DF92EF92FF920F931F93CF93DF937E
S11302704B015C018A01E9010E943B066B01770F87
S1130280EE08FF08C701B6010E9473069B01AC018A
S1130290C501B4010E9457054B015C0120E030E028
S11302A0A801C701B6010E94ED007C01209749F125
S11302B0F801E80FF91F8EE28083BE010D2E000CB9
S11302C0880B990B0E9473069B01AC0160E070E0FF
S11302D080E291E40E9495079B01AC01C501B40141
S11302E00E9428072FEFE21AF20A0E943B06A80197
S11302F04E0D5F1D072E000C880B990B9E010E946A
S1130300ED00DF91CF911F910F91FF90EF90DF905F
S1130310CF90BF90AF909F908F900895E0E4F4E069
S113032020812D7F2083208121602083BC0180E0F7
S113033090E00E94710620E030E040E851E40E9421
S113034028079B01AC0160E074E284E79DE40E940D
S1130350C90520E030E040E05FE30E9458050E94B8
S11303604206E0E2F8E0608771878681806C8683CC
S113037008959091240895FFFCCF80932208089556
S11303800F931F93CF93DF938C01C0E0D0E007C09D
S1130390F801EC0FFD1F80810E94B9012196F8013C
S11303A001900020E9F73197E01BF10BCE17DF072E
S11303B078F38AE00E94B901DF91CF911F910F91E8
S11303C008959A0141EC50E40E942C0181EC90E4E0
S11303D00E94C0010895E0E0F9E081E0858383E0B4
S11303E084830895E0E0F9E08DE0868381E08583ED
S11303F083818A6083838381816083830895CF931B
S1130400DF93C82FD62F809105098370833089F438
S113041080E490E40E94C00120E63AEE01C09C0111
S1130420809105098370833021F4C9010197232B3E
S1130430B1F785E080930509DD2341F08C2F90E02E
S1130440880F991F81608093070904C08C2F880F3F
S11304508093070980E69AEE2091050924FF06C0DF
S11304602091050926FD02C00197B1F7892B21F4DB
S11304708AE490E40E94C0018091050982FF04C0CF
S113048082E590E40E94C001DF91CF910895E7EEE8
S1130490F3E03197F1F700C000008093080980E68B
S11304A09AEE2091050924FF02C00197D1F7892B08
S11304B021F48AE490E40E94C0018091050983FD3F
S11304C004C08091050982FF06C081E790E40E9480
S11304D0C0010E94EB010895CF93DF93C0E6DAEEEA
S11304E080910509882314F02197D1F7809105099B
S11304F083FD04C08091050982FF06C085E890E46D
S11305000E94C0010E94EB01CD2B21F48AE490E407
S11305100E94C00180910809DF91CF910895E0E025
S1130520F4E082898860828B83898860838B83E38B
S113053093E3A3E3B0E08093144190931541A09317
S11305401641B09317418CEC9CECACECB0E080937A
S1130550BD409093BE40A093BF40B093C04080E89C
S113056095E20E948E010E94F20108958F929F925B
S1130570AF92BF92CF92DF92EF92FF92CF93DF932D
S113058060E088E10E94FF018AEA0E94470280E05D
S11305900E94470280E00E9447020E94EB018FE024
S11305A097E20197F1F700C0000061E088E10E9442
S11305B0FF010E946C028093B4400E946C0290E0A0
S11305C0A0E0B0E0BA2FA92F982F88278093B540D8
S11305D09093B640A093B740B093B8400E946C0289
S11305E04091B5405091B6406091B7407091B84089
S11305F0482B762F652F542F44274093B5405093B2
S1130600B6406093B7407093B8400E946C0240912A
S1130610B5405091B6406091B7407091B840482BB6
S11306204093B5405093B6406093B7407093B84040
S1130630E0E0F9E08481846084838FE097E20197AD
S1130640F1F700C000008090144190901541A090F3
S11306501641B09017418091B5409091B640A09159
S1130660B740B091B8409C01AD01281939094A0935
S11306705B09C091B240D091B340A0910940B091C0
S11306800A40AC1BBD0B0E9439090E9471066B0124
S11306907C018091BD409091BE40A091BF40B0913B
S11306A0C040BC01CD01681979098A099B090E94DF
S11306B071069B01AC01C701B6010E94C9056B011B
S11306C07C01BE0180E090E00E947106A7019601C2
S11306D00E9458056093AE407093AF408093B04041
S11306E09093B1402FE23DE94CE852E40E94280780
S11306F06093AA407093AB408093AC409093AD401C
S113070020E030E04AE754E40E942307181644F43A
S11307101092AA401092AB401092AC401092AD409F
S11307206091AA407091AB408091AC409091AD40F3
S113073041E050E00E94E1016091AA407091AB4019
S11307408091AC409091AD40DF91CF91FF90EF90BC
S1130750DF90CF90BF90AF909F908F900895E0E08E
S1130760F4E080818160808380898860808BE0E010
S1130770FAE08FE99FE086A397A310A211A28081DB
S11307808083818180618183818183608183808191
S113079081608083089580919E4090919F40A091B4
S11307A0A040B091A140803A9F40A105B10560F0FE
S11307B08FE99FE0A0E0B0E080939E4090939F403B
S11307C0A093A040B093A1400895CF92DF92EF92FE
S11307D0FF9220E030E040E85FE3609101407091D7
S11307E0024080910340909104400E94580520915A
S11307F0A6403091A7404091A8405091A9400E9442
S113080057056093A2407093A3408093A4409093B3
S1130810A5402091054030910640409107405091F9
S113082008400E9428076B017C0160919E407091F2
S11308309F408091A0409091A1400E947106A70121
S113084096010E9458050E94420660939E40709350
S11308509F408093A0409093A1400E94CB03FF90BF
S1130860EF90DF90CF9008958F929F92AF92BF92B6
S1130870CF92DF92EF92FF920E94B6026093A6405D
S11308807093A7408093A8409093A94041E050E022
S11308900E94E1010E94E50320E030E040E050E4E2
S11308A06091014070910240809103409091044016
S11308B00E9457052091A6403091A7404091A8403E
S11308C05091A9400E94230788231CF081E0809363
S11308D0004080910040882309F461C08FEC97E0C8
S11308E0A0E0B0E080939E4090939F40A093A040EE
S11308F0B093A1401FC00E94B6026093A6407093BB
S1130900A7408093A8409093A9400E94E503E4E89F
S1130910F4E080818E7F8083808182608083E0E048
S1130920FAE080818160808380919E4090919F4015
S113093080A791A720E030E040E85FE360910140A8
S11309407091024080910340909104400E945805A8
S11309502091A6403091A7404091A8405091A940D1
S11309600E94230788233CF61092004018C00E947E
S1130970B6026093A6407093A7408093A8409093DA
S1130980A9400E94E503E4E8F4E080818D7F808340
S1130990E0E0FAE080818160808310A611A620E067
S11309A030E040E050E46091014070910240809159
S11309B00340909104400E9458052091A640309134
S11309C0A7404091A8405091A9400E94C4058823A3
S11309D074F21EC00E94B6026093A6407093A740B2
S11309E08093A8409093A940E4E8F4E080818E7F4E
S11309F0808380818D7F808310929E4010929F40DF
S1130A001092A0401092A1401092280A1092290A34
S1130A108090014090900240A0900340B090044028
S1130A2020E030E040E050E4C501B4010E945805E4
S1130A30C090A640D090A740E090A840F090A94074
S1130A40A70196010E94230788238CF020E030E060
S1130A5040E050E4C501B4010E9457059B01AC017C
S1130A60C701B6010E94230788230CF0B3CFFF907F
S1130A70EF90DF90CF90BF90AF909F908F900895AC
S1130A8080E895E20E948E010E948F020E94AF03CB
S1130A906091A6407091A7408091A8409091A94090
S1130AA042E050E00E94E1010E943404F1CF50582A
S1130AB0BB27AA270E946F050C94E9060E94DB0657
S1130AC038F00E94E20620F039F49F3F19F426F42E
S1130AD00C94D8060EF4E095E7FB0C94D206E92FAB
S1130AE00E94FA0658F3BA1762077307840795073A
S1130AF020F079F4A6F50C941C070EF4E0950B2E67
S1130B00BA2FA02D0B01B90190010C01CA01A0015B
S1130B101124FF27591B99F0593F50F4503E68F1B6
S1130B201A16F040A22F232F342F4427585FF3CFF7
S1130B30469537952795A795F0405395C9F77EF4C8
S1130B401F16BA0B620B730B840BBAF09150A1F011
S1130B50FF0FBB1F661F771F881FC2F70EC0BA0F97
S1130B60621F731F841F48F4879577956795B7951F
S1130B70F7959E3F08F0B0CF9395880F08F099271A
S1130B80EE0F9795879508950E94AE0608F481E0CC
S1130B9008950E94DD050C94E9060E94E20658F0CF
S1130BA00E94DB0640F029F45F3F29F00C94D20642
S1130BB051110C941D070C94D8060E94FA0668F390
S1130BC09923B1F3552391F3951B550BBB27AA2702
S1130BD062177307840738F09F5F5F4F220F331F3C
S1130BE0441FAA1FA9F335D00E2E3AF0E0E832D004
S1130BF091505040E695001CCAF72BD0FE2F29D007
S1130C00660F771F881FBB1F261737074807AB07D8
S1130C10B0E809F0BB0B802DBF01FF2793585F4F4D
S1130C203AF09E3F510578F00C94D2060C941D07BF
S1130C305F3FE4F3983ED4F3869577956795B7952F
S1130C40F7959F5FC9F7880F911D9695879597F93A
S1130C500895E1E0660F771F881FBB1F62177307B3
S1130C608407BA0720F0621B730B840BBA0BEE1FC8
S1130C7088F7E09508950E9442066894B1110C9497
S1130C801D0708950E94020788F09F5798F0B92F16
S1130C909927B751B0F0E1F0660F771F881F991FAD
S1130CA01AF0BA95C9F714C0B13091F00E941C072C
S1130CB0B1E008950C941C07672F782F8827B85F3C
S1130CC039F0B93FCCF3869577956795B395D9F705
S1130CD03EF490958095709561957F4F8F4F9F4F0F
S1130CE00895E89409C097FB3EF49095809570951B
S1130CF061957F4F8F4F9F4F9923A9F0F92F96E964
S1130D00BB279395F695879577956795B795F111D8
S1130D10F8CFFAF4BB0F11F460FF1BC06F5F7F4F75
S1130D208F4F9F4F16C0882311F096E911C0772387
S1130D3021F09EE8872F762F05C0662371F096E890
S1130D40862F70E060E02AF09A95660F771F881F5F
S1130D50DAF7880F9695879597F90895990F000803
S1130D60550FAA0BE0E8FEEF16161706E807F90779
S1130D70C0F012161306E407F50798F0621B730B14
S1130D80840B950B39F40A2661F0232B242B252B95
S1130D9021F408950A2609F4A140A6958FEF811D38
S1130DA0811D089597F99F6780E870E060E00895D9
S1130DB09FEF80EC089500240A941616170618066F
S1130DC00906089500240A9412161306140605064B
S1130DD00895092E0394000C11F4882352F0BB0FDC
S1130DE040F4BF2B11F460FF04C06F5F7F4F8F4F3F
S1130DF09F4F089557FD9058440F551F59F05F3F7A
S1130E0071F04795880F97FB991F61F09F3F79F028
S1130E1087950895121613061406551FF2CF4695AA
S1130E20F1DF08C0161617061806991FF1CF86952C
S1130E307105610508940895E894BB276627772710
S1130E40CB0197F908950E94AE0608F48FEF089538
S1130E500E943B070C94E9060E94DB0638F00E94CE
S1130E60E20620F0952311F00C94D2060C94D806D7
S1130E7011240C941D070E94FA0670F3959FC1F388
S1130E80950F50E0551F629FF001729FBB27F00D34
S1130E90B11D639FAA27F00DB11DAA1F649F662789
S1130EA0B00DA11D661F829F2227B00DA11D621FD8
S1130EB0739FB00DA11D621F839FA00D611D221F92
S1130EC0749F3327A00D611D231F849F600D211D76
S1130ED0822F762F6A2F11249F5750409AF0F1F0F9
S1130EE088234AF0EE0FFF1FBB1F661F771F881F62
S1130EF091505040A9F79E3F510580F00C94D206C2
S1130F000C941D075F3FE4F3983ED4F386957795E0
S1130F106795B795F795E7959F5FC1F7FE2B880F07
S1130F20911D9695879597F90895FA01EE0FFF1F85
S1130F30309621053105A1F16115710561F4803800
S1130F40BFE39B0749F168949038810561F08038CC
S1130F50BFEF9B0741F099234AF5FF3FE1053105B7
S1130F60210519F1E8940894E795D901AA2329F4F5
S1130F70AB2FBE2FF85FD0F310C0FF5F70F4A695BF
S1130F80E0F7F73950F019F0FF3A38F49F779F9360
S1130F900DD00F9007FC9058089546F00C94D80695
S1130FA060E070E080E89FE308954FE79F775F93E8
S1130FB04F933F932F930E9490082F913F914F910D
S1130FC05F910E9428070C94ED0729F416F00C9405
S1130FD0D2060C941C070C94D8060E940207A8F3AE
S1130FE09638A0F707F80F92E8942BE33AEA48EB17
S1130FF05FE70E943E070F920F920F924DB75EB7C4
S11310000F920E94D808E8EEF0E00E941F084F916A
S11310105F91EF91FF91E595EE1FFF1F49F0FE5799
S1131020E0684427EE0F441FFA95E1F74195550B0C
S11310300E9452080F9007FE0C9446080895DF930F
S1131040CF931F930F93FF92EF92DF927B018C015A
S1131050689406C0DA2EEF010E943B07FE01E89473
S1131060A5912591359145915591A6F3EF010E94E3
S11310706F05FE019701A801DA9469F7DF90EF90FC
S1131080FF900F911F91CF91DF9108959B01AC01C7
S113109060E070E080E89FE30C94C9050C94D206EC
S11310A00C940C090E940207D8F39923C9F3940FF6
S11310B0511DA3F39150504094F059F0882332F01D
S11310C0660F771F881F91505040C1F79E3F51050E
S11310D02CF7880F911D9695879597F908955F3F92
S11310E0ACF0983E9CF0BB27869577956795B795AD
S11310F008F4B1609395C1F7BB0F58F711F460FF82
S1131100E8CF6F5F7F4F8F4F9F4FE3CF0C941D0746
S113111016F00C940C090C94D80668940C94D2061E
S11311200E940207A8F39923C1F3AEF3DF93CF9390
S11311301F930F93FF92C92FDD2788232AF021974D
S1131140660F771F881FDAF720E030E040E85FEB96
S11311509FE3883920F0803E38F021968F770E94F3
S11311605805E0E1F1E004C00E945805EDE3F1E028
S11311700E941F088B01BE01EC01FB2E6F57710901
S11311807595771F880B990B0E94730628E132E747
S113119041E35FE30E943B07AF2D9801AE01FF904E
S11311A00F911F91CF91DF910E946F050C94E90676
S11311B0FA01DC01AA0FBB1F9B01AC01BF5728F445
S11311C0222733274427507820C0B75190F4AB2FFF
S11311D00024469537952795011CA395D2F300204A
S11311E071F0220F331F441FB395DAF30ED00C9421
S11311F0570561307105A0E88A07B94630F49B01B0
S1131200AC016627772788279078309621F02083D1
S113121031834283538308959F3F31F0915020F4EA
S1131220879577956795B795880F911D96958795BE
S113123097F90895052E97FB1EF400940E94310936
S113124057FD07D00E94440907FC03D04EF40C94C8
S1131250310950954095309521953F4F4F4F5F4F41
S1131260089590958095709561957F4F8F4F9F4F0E
S113127008950E946609A59F900DB49F900DA49FA8
S1131280800D911D11240895A1E21A2EAA1BBB1BE7
S1131290FD010DC0AA1FBB1FEE1FFF1FA217B3073E
S11312A0E407F50720F0A21BB30BE40BF50B661F54
S11312B0771F881F991F1A9469F760957095809518
S11312C090959B01AC01BD01CF010895A29FB0018F
S11312D0B39FC001A39F700D811D1124911DB29F66
S11112E0700D811D1124911D0895F894FFCF07
S11312EE01000074420000C03F01005249460057FD
S11312FE494600434C4B484F4C4400525841434BD3
S113130E004152424C4F53540042555345525200E1
S113131E49444C45004F574E4552004255535900CF
S113132E49324320627573792E0074696D656F7549
S113133E74000A2D2D2D2D3E204572726F72206978
S113134E6E2073656E64696E6720616464722E0A22
S113135E004572726F7220696E206461746120732D
S113136E656E742E004572726F7220696E20646110
S111137E74612072656369657665642E0000F3
S9030000FC
